:100000000C9463000C9403050C94DC040C942A05F6
:100010000C942A050C942A050C948B000C948B00EC
:100020000C948B000C948B000C948B000C948B0024
:100030000C948B000C948B000C948B000C948B0014
:100040000C9492040C948B000C9460040C943A046D
:100050000C948B000C948B000C948B000C948B00F4
:100060000C948B000C948B000000000024002700EF
:100070002A0000000008000201000003040700003D
:1000800000000000000000000000250028002B00F8
:1000900000000000230026002900040404040404D6
:1000A0000404020202020202030303030303010227
:1000B00004081020408001020408102001020408F6
:1000C0001020A405330911241FBECFEFD8E0DEBFF6
:1000D000CDBF11E0A0E0B1E0E0E7F3E102C00590A0
:1000E0000D92AA37B107D9F722E0AAE7B1E001C023
:1000F0001D92AC3FB207E1F710E0C2E6D0E004C0C9
:100100002197FE010E94A009C136D107C9F70E94BC
:100110004F060C94AB090C940000CF92DF92EF9243
:10012000FF920F931F93CF93DF936C017A018B01A2
:10013000C0E0D0E0CE15DF0589F0D8016D918D01CA
:10014000D601ED91FC910190F081E02DC601099559
:10015000892B11F47E0102C02196ECCFC701DF91FB
:10016000CF911F910F91FF90EF90DF90CF90089566
:10017000FC01538D448D252F30E0842F90E0821BAD
:10018000930B541710F0CF96089501970895FC0132
:10019000918D828D981761F0828DDF01A80FB11DBE
:1001A0005D968C91928D9F5F9F73928F90E00895E2
:1001B0008FEF9FEF0895FC01918D828D981731F09C
:1001C000828DE80FF11D858D90E008958FEF9FEFF0
:1001D0000895FC01918D228D892F90E0805C9F4FC6
:1001E000821B91098F739927089580E492E00E9401
:1001F000E90021E0892B09F420E0822F0895FC0119
:10020000848DDF01A80FB11DA35ABF4F2C91848D9F
:1002100090E001968F739927848FA689B7892C93D4
:10022000A089B1898C9180648C93938D848D98136F
:1002300006C00288F389E02D80818F7D8083089538
:10024000EF92FF920F931F93CF93DF93EC0181E026
:10025000888F9B8D8C8D981305C0E889F9898081E2
:1002600085FD24C0F62E0B8D10E00F5F1F4F0F731E
:100270001127E02E8C8DE8120CC00FB607FCFACFC8
:10028000E889F989808185FFF5CFCE010E94FF00C2
:10029000F1CF8B8DFE01E80FF11DE35AFF4FF08285
:1002A0000B8FEA89FB898081806207C0EE89FF8914
:1002B0006083E889F98980818064808381E090E0AF
:1002C000DF91CF911F910F91FF90EF900895CF9301
:1002D000DF93EC01888D8823C9F0EA89FB8980814E
:1002E00085FD05C0A889B9898C9186FD0FC00FB620
:1002F00007FCF5CF808185FFF2CFA889B9898C9161
:1003000085FFEDCFCE010E94FF00E7CFDF91CF91B7
:10031000089580E090E0892B29F00E94F50081117A
:100320000C940000089590E0FC01EE58FF4F3491CA
:10033000FC01E255FF4F2491FC01E656FF4FE4918A
:10034000EE2309F43BC0332339F1333091F038F414
:100350003130A9F0323001F584B58F7D12C03730CD
:1003600091F03830A1F03430B9F4809180008F7D65
:1003700003C0809180008F77809380000DC084B58A
:100380008F7784BD09C08091B0008F7703C08091C2
:10039000B0008F7D8093B000F0E0EE0FFF1FEA57B2
:1003A000FF4FA591B4918FB7F894EC91611103C000
:1003B00020952E2301C02E2B2C938FBF0895CF9311
:1003C000DF9390E0FC01E255FF4F2491FC01E656DB
:1003D000FF4F8491882361F190E0880F991FFC0101
:1003E000E859FF4FC591D491FC01EA57FF4FA59101
:1003F000B491611109C09FB7F89488812095822338
:100400008883EC912E230BC0623061F49FB7F8947F
:100410003881822F809583238883EC912E2B2C9317
:100420009FBF06C08FB7F894E8812E2B28838FBF1B
:10043000DF91CF9108953FB7F8948091C0019091DA
:10044000C101A091C201B091C30126B5A89B05C00E
:100450002F3F19F00196A11DB11D3FBFBA2FA92F43
:10046000982F8827820F911DA11DB11DBC01CD01C0
:1004700042E0660F771F881F991F4A95D1F70895AC
:100480008F929F92AF92BF92CF92DF92EF92FF92A4
:100490006B017C010E941B024B015C01C114D10461
:1004A000E104F104F1F00E941B02DC01CB01881988
:1004B0009909AA09BB09883E9340A105B10570F3CB
:1004C00021E0C21AD108E108F10888EE880E83E025
:1004D000981EA11CB11CC114D104E104F10419F748
:1004E000DDCFFF90EF90DF90CF90BF90AF909F90C7
:1004F0008F90089508952091C6013091C701281763
:10050000390771F49091C4018091C501981741F0A9
:10051000E091C401F0E0E558FE4F808190E008953D
:100520008FEF9FEF089508951F93CF93DF93DC0122
:100530005C962D913C915D972115310539F481E050
:1005400090E013969C938E9312973DC05196ED9137
:10055000FC91529750969C915097892F80951FB788
:100560005E964C915E9741FB772770F941FD60954F
:10057000F8944081772311F0492B01C04823408330
:10058000E9012197F1F748E0508160FF02C0592B43
:1005900001C058235083E9012197F1F76695415036
:1005A00099F7772321F090818923808303C080818C
:1005B000982B90831FBF5C968D919C915D970197BE
:1005C000F1F721E030E0C901DF91CF911F9108954B
:1005D0002091C6013091C7012817390771F4809125
:1005E000C5012091C40190E0805C9F4F821B91095E
:1005F00060E470E00E943D09089580E090E0089575
:100600002091C6013091C70128173907B9F490919C
:10061000C4018091C501981789F0E091C401F0E010
:10062000E558FE4F80812091C40130E02F5F3F4F9D
:100630002F7333272093C40190E008958FEF9FEF2D
:100640000895E091C601F091C701E817F90769F430
:10065000A389B4899C918589809589238C93109274
:10066000C7011092C60181E0089580E008950895C1
:1006700080E090E00895FF920F931F93CF93DF9354
:1006800000D000D0CDB7DEB769837A838B839C839B
:1006900061E089E00E9493018E010F5F1F4F84E0AB
:1006A000F82EF00EF80161918F018DED92E00E941D
:1006B0009402F012F7CF6AE070E080E090E00E94D0
:1006C000400260E089E00E9493010F900F900F902C
:1006D0000F90DF91CF911F910F91FF900895009798
:1006E00069F0FC0101900020E9F73197AF01481B48
:1006F000590BBC0180E492E00C948D0080E090E006
:1007000008950C946F0388E291E00E948103809128
:100710003C028F5F80933C0210923F0288EB9BE08B
:1007200090933E0280933D0208958AE291E00E94F8
:10073000810380913C02E82FF0E0E053FE4F91E00E
:1007400090838F5F80933C0210923F0288EB9BE086
:1007500090933E0280933D0208958F929F92AF92B4
:10076000BF920F931F93CF93DF93CDB7DEB7A197BF
:100770000FB6F894DEBF0FBECDBF19A2423008F409
:100780004AE08E010F5D1F4F842E912CA12CB12CBD
:10079000A50194010E945109E62FB901CA01015037
:1007A0001109EA3014F4E05D01C0E95CD801EC9372
:1007B000232B242B252B61F7C8010E946F03A196E0
:1007C0000FB6F894DEBF0FBECDBFDF91CF911F9162
:1007D0000F91BF90AF909F908F9008958CE291E021
:1007E0000E9481036091CC017091CD018091CE0176
:1007F0009091CF014AE00E94AD0382E391E00E9414
:1008000081036091C8017091C9018091CA019091E2
:10081000CB014AE00E94AD038AE391E00E946F039E
:100820006091C8017091C9018091CA019091CB017A
:100830000E943B0360E086E00E94930166E970E05D
:1008400080E090E00E94400261E086E00E94930117
:1008500066E970E080E090E00E94400260E086E09F
:100860000E94930166E970E080E090E00C94400201
:100870000E94A6091F920F920FB60F9211242F9378
:100880003F934F935F936F937F938F939F93AF9318
:10089000BF93EF93FF9380E492E00E94FF00FF91EB
:1008A000EF91BF91AF919F918F917F916F915F91E8
:1008B0004F913F912F910F900FBE0F901F90189561
:1008C0001F920F920FB60F9211242F938F939F9325
:1008D000EF93FF93E0915002F09151028081E091FB
:1008E0005602F091570282FD12C090818091590208
:1008F0008F5F8F7320915A02821751F0E091590255
:10090000F0E0E05CFD4F958F8093590201C080813B
:10091000FF91EF919F918F912F910F900FBE0F90AC
:100920001F9018951F920F920FB60F9211242F93BC
:100930003F938F939F93AF93BF938091BC0190910E
:10094000BD01A091BE01B091BF013091BB0123E078
:10095000230F2D3720F40196A11DB11D05C026E8F7
:10096000230F0296A11DB11D2093BB018093BC01F2
:100970009093BD01A093BE01B093BF018091C001CF
:100980009091C101A091C201B091C3010196A11D36
:10099000B11D8093C0019093C101A093C201B09397
:1009A000C301BF91AF919F918F913F912F910F9074
:1009B0000FBE0F901F9018951F920F920FB60F92B7
:1009C00011242F933F934F935F936F937F938F9354
:1009D0009F93AF93BF93EF93FF93E0910201F09148
:1009E00003010995FF91EF91BF91AF919F918F9175
:1009F0007F916F915F914F913F912F910F900FBE1B
:100A00000F901F9018951F920F920FB60F921124FE
:100A10002F933F934F935F936F937F938F939F9306
:100A2000AF93BF93EF93FF93E0910001F091010129
:100A30000995FF91EF91BF91AF919F918F917F9118
:100A40006F915F914F913F912F910F900FBE0F903B
:100A50001F9018951F920F920FB60F9211242F938B
:100A60003F934F935F936F937F938F939F93AF9336
:100A7000BF93EF93FF93E091C601F091C7013097C8
:100A800009F451C0968DA685B785858591FF04C070
:100A90009C91892329F447C09C91892309F043C084
:100AA000A389B4899C918589809589238C938689B3
:100AB00097890197F1F7608D718DA685B78555856A
:100AC00038E020E0CB010197F1F7822F90E0959577
:100AD0008795282F4C91452309F02068315091F7D4
:100AE000868D81FD20958091C50190E001968F73E0
:100AF00099273091C401381749F0A091C501B0E0A1
:100B0000A558BE4F2C938093C50103C0868D81608C
:100B1000868F828D938D0197F1F7A389B4899C917B
:100B20008589892B8C93FF91EF91BF91AF919F9114
:100B30008F917F916F915F914F913F912F910F9086
:100B40000FBE0F901F901895109243021092420210
:100B500088EE93E0A0E0B0E08093440290934502D9
:100B6000A0934602B093470228E031E0309341025F
:100B70002093400225EC30E030934D0220934C024C
:100B800024EC30E030934F0220934E0220EC30E012
:100B9000309351022093500221EC30E03093530205
:100BA0002093520222EC30E03093550220935402FD
:100BB00026EC30E0309357022093560210925902EF
:100BC00010925A0210925B0210925C021092E002A4
:100BD0001092DF028093E1029093E202A093E3027D
:100BE000B093E4028AE191E09093DE028093DD020B
:100BF0001092F4021092F3021092F6021092F50293
:100C00001092F8021092F7021092FA021092F90272
:100C10006091FB026E7F6D7F6093FB026695617051
:100C200081E0682788E00E94930161E088E00E94EB
:100C3000DF01E6EBF0E0E491E093ED02E2EAF0E0C0
:100C4000E491F0E0EE0FFF1FEA57FF4F859194917A
:100C50009093EF028093EE0260E08AE00E94DF0151
:100C60008091FB0281FD04C061E08AE00E94930153
:100C70008AE08093E902E8EBF0E0E491E093EA0295
:100C8000E4EAF0E0E491F0E0EE0FFF1FE057FF4FE1
:100C9000859194919093EC028093EB020895CF9309
:100CA000DF9300D000D0CDB7DEB7789484B58260F2
:100CB00084BD84B5816084BD85B5826085BD85B500
:100CC000816085BD80916E00816080936E0010927E
:100CD00081008091810082608093810080918100F9
:100CE000816080938100809180008160809380008A
:100CF0008091B10084608093B1008091B0008160E8
:100D00008093B00080917A00846080937A00809113
:100D10007A00826080937A0080917A00816080936B
:100D20007A0080917A00806880937A001092C100E6
:100D300061E086E00E94DF0161E087E00E94DF0160
:100D400061E089E00E94DF011092F8021092F70240
:100D50001092F6021092F5021092F4021092F30231
:100D60008DE991E09093FA028093F9029091E90263
:100D7000963108F057C02DEB30E03093F402209309
:100D8000F3022BE931E03093F6022093F5022CE2D6
:100D900031E03093F8022093F702209168009830F8
:100DA00050F031E09E3008F430E081E001C0880F5F
:100DB0003A95EAF701C084E0822B8093680098306E
:100DC00038F09E3040F0963148F020E030E008C026
:100DD0002DE630E005C02BE630E002C02CE630E026
:100DE0003093F1022093F002983030F481E001C09A
:100DF000880F9A95EAF70EC0292F30E09E3018F43C
:100E00002850310902C02E50310981E001C0880FFD
:100E10002A95EAF78093F2028091F9029091FA0202
:100E20000197F1F78091F7029091F802892B21F157
:100E30008091C6019091C70122E08D3D9207E1F0BB
:100E4000009711F00E9421038091FB028E7F809316
:100E5000FB021092C5011092C4018DED92E09093B7
:100E6000C7018093C601E091F002F091F1029081F8
:100E70008091F202892B808362E082E00E94DF0190
:100E800062E083E00E94DF0183E893E09093010138
:100E900080930001809169008C7F8260809369005B
:100EA000E89A85E993E09093030180930201809191
:100EB0006900837F886080936900E99A88EB9BE0F2
:100EC00090933E0280933D02E0915002F0915102D6
:100ED00082E08083E0914C02F0914D021082E0911B
:100EE0004E02F0914F028FEC808310925802E091F5
:100EF0005402F091550286E08083E0915202F09115
:100F00005302808180618083E0915202F09153020C
:100F1000808188608083E0915202F0915302808149
:100F200080688083E0915202F091530280818F7D2E
:100F300080838DE391E00E946F038AE391E00E9439
:100F40006F0380ED91E0E4E6AE2EA80E81ED91E016
:100F5000F8E09F2E980E89ED91E0A0E18A2E880E90
:100F600084ED91E0B0E17B2E780E61E086E00E9496
:100F7000930180913F0281110EC080913D029091BA
:100F80003E02019790933E0280933D02892B19F413
:100F900081E080933F0280913C02882309F460C184
:100FA00080913F02882309F45BC1109234021092B1
:100FB00035021092360210923702109238021092C7
:100FC000390210923A0210923B028AE491E00E94A8
:100FD0008103E12CF12CB12CCC24C394D12C809131
:100FE0003C02B81608F05DC00B2D10E0F801E0538C
:100FF000FE4F608170E080E090E04AE00E94AD0327
:10100000C801019687709927892B21F486E691E023
:101010000E948103E0913C02F0E0E01BF10BE15300
:10102000FE4F80818823D9F1C601002E02C0880FAF
:10103000991F0A94E2F7E82AF92A21E030E040E01B
:1010400050E060E070E080E090E00E947309E09181
:1010500034022E2B2093340220913502322B309310
:10106000350220913602422B4093360220913702FE
:10107000522B5093370220913802622B6093380232
:1010800020913902722B7093390220913A02822BFF
:1010900080933A0280913B02982B90933B02B39449
:1010A0009ECF81E591E00E948103B70180E090E04E
:1010B0004AE00E94AD0389E591E00E9481036091BE
:1010C0003C0270E080E090E04AE00E94AD0380E6E0
:1010D00091E00E94810380913C028532C9F58091A4
:1010E000CC019091CD01A091CE01B091CF01E4ED62
:1010F000F1E02191880F991FAA1FBB1F822B7E123E
:10110000F8CF8093CC019093CD01A093CE01B09302
:10111000CF018091C8019091C901A091CA01B091FD
:10112000CB01E4EEF1E020E12E0F3191880F991F01
:10113000AA1FBB1F832B2E13F8CF8093C801909357
:10114000C901A093CA01B093CB010E94EE0371C004
:101150008A3169F58091CC019091CD01A091CE01A9
:10116000B091CF01E1EDF1E02191880F991FAA1F05
:10117000BB1F822B9E12F8CF8093CC019093CD01A0
:10118000A093CE01B093CF018091C8019091C90185
:10119000A091CA01B091CB01E9EDF1E02191880F56
:1011A000991FAA1FBB1F822B8E12F8CFC6CF88E6CD
:1011B00091E00E946F038AE391E00E946F0360E078
:1011C00086E00E94930161E087E00E94930166E956
:1011D00070E080E090E00E94400260E087E00E94C2
:1011E000930166E970E080E090E00E94400261E0D7
:1011F00087E00E94930166E970E080E090E00E9441
:10120000400260E087E00E94930160913402709197
:101210003502809136029091370269837A838B83FD
:101220009C830E943B036D817E818F8198850E9403
:101230003B0310923C021092CC011092CD0110920F
:10124000CE011092CF011092C8011092C9011092E4
:10125000CA011092CB01E0EDF1E01192AE12FDCF88
:101260000E94890182CE8AE191E09093DE02809310
:10127000DD028DED92E00C94210397FB072E16F40E
:10128000009407D077FD09D00E948C0907FC05D097
:101290003EF4909581959F4F0895709561957F4F8D
:1012A0000895A1E21A2EAA1BBB1BFD010DC0AA1FA7
:1012B000BB1FEE1FFF1FA217B307E407F50720F0BF
:1012C000A21BB30BE40BF50B661F771F881F991F3A
:1012D0001A9469F760957095809590959B01AC0183
:1012E000BD01CF0108950F93083090F0982F872FFC
:1012F000762F652F542F432F322F22270850F4CFFB
:10130000220F331F441F551F661F771F881F991F09
:101310000A95B2F70F910895AA1BBB1B51E107C0B4
:10132000AA1FBB1FA617B70710F0A61BB70B881F75
:10133000991F5A95A9F780959095BC01CD01089504
:10134000EE0FFF1F0590F491E02D099481E090E0ED
:10135000F8940C94AB0910E0C2E6D0E004C0FE01A2
:101360000E94A0092196C336D107C9F7F894FFCF90
:101370007A027A020000000020018D00B8006701A7
:10138000E900C700DB000000000094028D00380374
:101390009302E80200037B02300031004643203D07
:1013A00020002C204343203D20000D0A00524649D6
:1013B00044205265616465727300446174613A202F
:1013C00000204C6F6E673A20002052656164200057
:1013D00020626974732E2000556E61626C65207402
:0A13E0006F206465636F64652E00E2
:00000001FF
