:100000000C9463000C94A8040C9481040C94CF0409
:100010000C94CF040C94CF040C948B000C948B00A4
:100020000C948B000C948B000C948B000C948B0024
:100030000C948B000C948B000C948B000C948B0014
:100040000C9437040C948B000C9405040C94DF037F
:100050000C948B000C948B000C948B000C948B00F4
:100060000C948B000C948B000000000024002700EF
:100070002A0000000008000201000003040700003D
:1000800000000000000000000000250028002B00F8
:1000900000000000230026002900040404040404D6
:1000A0000404020202020202030303030303010227
:1000B00004081020408001020408102001020408F6
:1000C00010204905EC0711241FBECFEFD8E0DEBF9A
:1000D000CDBF11E0A0E0B1E0ECE6F0E102C0059098
:1000E0000D92A832B107D9F722E0A8E2B1E001C031
:1000F0001D92A23AB207E1F710E0C2E6D0E004C0D8
:100100002197FE010E941E08C136D107C9F70E943F
:10011000F4050C9429080C9400008091E2018F5F93
:100120008093E2011092E50188EB9BE09093E4015B
:100130008093E30108958091E201E82FF0E0E65812
:10014000FE4F91E090838F5F8093E2011092E50172
:1001500088EB9BE09093E4018093E3010895CF92B4
:10016000DF92EF92FF920F931F93CF93DF936C0177
:100170007A018B01C0E0D0E0CE15DF0589F0D8010F
:100180006D918D01D601ED91FC910190F081E02DF2
:10019000C6010995892B11F47E0102C02196ECCF8E
:1001A000C701DF91CF911F910F91FF90EF90DF90EA
:1001B000CF900895FC01538D448D252F30E0842F7E
:1001C00090E0821B930B541710F0CF96089501977F
:1001D0000895FC01918D828D981761F0828DDF0169
:1001E000A80FB11D5D968C91928D9F5F9F73928F2A
:1001F00090E008958FEF9FEF0895FC01918D828D1F
:10020000981731F0828DE80FF11D858D90E00895EB
:100210008FEF9FEF0895FC01918D228D892F90E043
:10022000805C9F4F821B91098F739927089586EEFA
:1002300091E00E940B0121E0892B09F420E0822F3C
:100240000895FC01848DDF01A80FB11DA35ABF4F93
:100250002C91848D90E001968F739927848FA689C5
:10026000B7892C93A089B1898C9180648C93938DEC
:10027000848D981306C00288F389E02D80818F7DDC
:1002800080830895EF92FF920F931F93CF93DF9394
:10029000EC0181E0888F9B8D8C8D981305C0E889D7
:1002A000F989808185FD24C0F62E0B8D10E00F5F4B
:1002B0001F4F0F731127E02E8C8DE8120CC00FB664
:1002C00007FCFACFE889F989808185FFF5CFCE0157
:1002D0000E942101F1CF8B8DFE01E80FF11DE35A41
:1002E000FF4FF0820B8FEA89FB898081806207C013
:1002F000EE89FF896083E889F98980818064808341
:1003000081E090E0DF91CF911F910F91FF90EF90EE
:100310000895CF93DF93EC01888D8823C9F0EA8993
:10032000FB89808185FD05C0A889B9898C9186FDEE
:100330000FC00FB607FCF5CF808185FFF2CFA889EB
:10034000B9898C9185FFEDCFCE010E942101E7CFC5
:10035000DF91CF91089580E090E0892B29F00E94F1
:10036000170181110C940000089590E0FC01EE58F3
:10037000FF4F3491FC01E255FF4F2491FC01E656FA
:10038000FF4FE491EE2309F43BC0332339F13330BE
:1003900091F038F43130A9F0323001F584B58F7D19
:1003A00012C0373091F03830A1F03430B9F4809178
:1003B00080008F7D03C0809180008F7780938000C4
:1003C0000DC084B58F7784BD09C08091B0008F7750
:1003D00003C08091B0008F7D8093B000F0E0EE0FFD
:1003E000FF1FEA57FF4FA591B4918FB7F894EC9196
:1003F000611103C020952E2301C02E2B2C938FBF9B
:100400000895CF93DF9390E0FC01E255FF4F2491D4
:10041000FC01E656FF4F8491882361F190E0880F3C
:10042000991FFC01E859FF4FC591D491FC01EA578F
:10043000FF4FA591B491611109C09FB7F8948881CD
:10044000209582238883EC912E230BC0623061F4C7
:100450009FB7F8943881822F809583238883EC910D
:100460002E2B2C939FBF06C08FB7F894E8812E2BBC
:1004700028838FBFDF91CF9108953FB7F894809183
:100480006E0190916F01A0917001B091710126B53C
:10049000A89B05C02F3F19F00196A11DB11D3FBFBC
:1004A000BA2FA92F982F8827820F911DA11DB11D4A
:1004B000BC01CD0142E0660F771F881F991F4A9546
:1004C000D1F708958F929F92AF92BF92CF92DF9211
:1004D000EF92FF926B017C010E943D024B015C0197
:1004E000C114D104E104F104F1F00E943D02DC01E9
:1004F000CB0188199909AA09BB09883E9340A10537
:10050000B10570F321E0C21AD108E108F10888EEC4
:10051000880E83E0981EA11CB11CC114D104E10413
:10052000F10419F7DDCFFF90EF90DF90CF90BF90EF
:10053000AF909F908F90089508952091740130910D
:1005400075012817390771F4909172018091730138
:10055000981741F0E0917201F0E0E75DFE4F808175
:1005600090E008958FEF9FEF089508951F93CF9324
:10057000DF93DC015C962D913C915D97211531054F
:1005800039F481E090E013969C938E9312973DC0CE
:100590005196ED91FC91529750969C915097892FCE
:1005A00080951FB75E964C915E9741FB772770F957
:1005B00041FD6095F8944081772311F0492B01C0EB
:1005C00048234083E9012197F1F748E0508160FF1B
:1005D00002C0592B01C058235083E9012197F1F73C
:1005E0006695415099F7772321F090818923808384
:1005F00003C08081982B90831FBF5C968D919C9146
:100600005D970197F1F721E030E0C901DF91CF91CB
:100610001F910895209174013091750128173907B1
:1006200071F4809173012091720190E0805C9F4F82
:10063000821B910960E470E00E94F607089580E053
:1006400090E00895209174013091750128173907C1
:10065000B9F49091720180917301981789F0E0913B
:100660007201F0E0E75DFE4F80812091720130E081
:100670002F5F3F4F2F7333272093720190E008952F
:100680008FEF9FEF0895E0917401F0917501E817E5
:10069000F90769F4A389B4899C9185898095892398
:1006A0008C93109275011092740181E0089580E09E
:1006B0000895089580E090E00895BF92CF92DF9270
:1006C000EF92FF920F931F93CF93DF93CDB7DEB7D7
:1006D00028970FB6F894DEBF0FBECDBFC09076014D
:1006E000D0907701E0907801F0907901CD82DE82A0
:1006F000EF82F88661E089E00E94B5018E010B5F10
:100700001F4F94E0B92EB00EF80161918F0183E87C
:1007100092E00E94B602B012F7CF6AE070E080E08B
:1007200090E00E94620260E089E00E94B501C98207
:10073000DA82EB82FC828E010F5F1F4F84E0F82E7D
:10074000F00EF80161918F0186EE91E00E94420166
:10075000F012F7CF6AE070E080E090E00E94620261
:1007600060E086E00E94B50166E970E080E090E01C
:100770000E94620261E086E00E94B50166E970E0D5
:1007800080E090E00E94620260E086E00E94B50195
:1007900066E970E080E090E028960FB6F894DEBF3E
:1007A0000FBECDBFDF91CF911F910F91FF90EF90C2
:1007B000DF90CF90BF900C9462020E9424081F9299
:1007C0000F920FB60F9211242F933F934F935F9385
:1007D0006F937F938F939F93AF93BF93EF93FF9309
:1007E00086EE91E00E942101FF91EF91BF91AF91C0
:1007F0009F918F917F916F915F914F913F912F9139
:100800000F900FBE0F901F9018951F920F920FB66A
:100810000F9211242F938F939F93EF93FF93E09167
:10082000F601F091F7018081E091FC01F091FD016A
:1008300082FD12C090818091FF018F5F8F732091A4
:100840000002821751F0E091FF01F0E0EA51FE4F03
:10085000958F8093FF0101C08081FF91EF919F915F
:100860008F912F910F900FBE0F901F9018951F9290
:100870000F920FB60F9211242F933F938F939F9354
:10088000AF93BF9380916A0190916B01A0916C012D
:10089000B0916D013091690123E0230F2D3720F4D1
:1008A0000196A11DB11D05C026E8230F0296A11DCA
:1008B000B11D2093690180936A0190936B01A0930D
:1008C0006C01B0936D0180916E0190916F01A091C8
:1008D0007001B09171010196A11DB11D80936E014F
:1008E00090936F01A0937001B0937101BF91AF918C
:1008F0009F918F913F912F910F900FBE0F901F905E
:1009000018951F920F920FB60F9211242F933F93B9
:100910004F935F936F937F938F939F93AF93BF9307
:10092000EF93FF93E0910201F09103010995FF918C
:10093000EF91BF91AF919F918F917F916F915F9157
:100940004F913F912F910F900FBE0F901F901895D0
:100950001F920F920FB60F9211242F933F934F9334
:100960005F936F937F938F939F93AF93BF93EF9317
:10097000FF93E0910001F09101010995FF91EF9142
:10098000BF91AF919F918F917F916F915F914F91A7
:100990003F912F910F900FBE0F901F9018951F92AF
:1009A0000F920FB60F9211242F933F934F935F93A3
:1009B0006F937F938F939F93AF93BF93EF93FF9327
:1009C000E0917401F0917501309709F451C0968D52
:1009D000A685B785858591FF04C09C91892329F45C
:1009E00047C09C91892309F043C0A389B4899C9195
:1009F0008589809589238C93868997890197F1F75A
:100A0000608D718DA685B785558538E020E0CB01D6
:100A10000197F1F7822F90E095958795282F4C91BB
:100A2000452309F02068315091F7868D81FD20958E
:100A30008091730190E001968F7399273091720134
:100A4000381749F0A0917301B0E0A75DBE4F2C9319
:100A50008093730103C0868D8160868F828D938D14
:100A60000197F1F7A389B4899C918589892B8C938F
:100A7000FF91EF91BF91AF919F918F917F916F9176
:100A80005F914F913F912F910F900FBE0F901F904C
:100A900018951092E9011092E80188EE93E0A0E029
:100AA000B0E08093EA019093EB01A093EC01B09346
:100AB000ED0128E031E03093E7012093E60125ECD9
:100AC00030E03093F3012093F20124EC30E03093D6
:100AD000F5012093F40120EC30E03093F7012093EE
:100AE000F60121EC30E03093F9012093F80122EC7B
:100AF00030E03093FB012093FA0126EC30E0309394
:100B0000FD012093FC011092FF011092000210924F
:100B100001021092020210928602109285028093C6
:100B2000870290938802A0938902B0938A028AE197
:100B300091E0909384028093830210929A02109223
:100B4000990210929C0210929B0210929E021092A7
:100B50009D021092A00210929F026091A1026E7FEE
:100B60006D7F6093A1026695617081E0682788E0DF
:100B70000E94B50161E088E00E940102E6EBF0E02E
:100B8000E491E0939302E2EAF0E0E491F0E0EE0F0A
:100B9000FF1FEA57FF4F85919491909395028093A0
:100BA000940260E08AE00E9401028091A10281FD2E
:100BB00004C061E08AE00E94B5018AE080938F0260
:100BC000E8EBF0E0E491E0939002E4EAF0E0E491F5
:100BD000F0E0EE0FFF1FE057FF4F85919491909347
:100BE0009202809391020895789484B5826084BDC6
:100BF00084B5816084BD85B5826085BD85B5816021
:100C000085BD80916E00816080936E00109281009E
:100C10008091810082608093810080918100816059
:100C2000809381008091800081608093800080911A
:100C3000B10084608093B1008091B00081608093A6
:100C4000B00080917A00846080937A0080917A006D
:100C5000826080937A0080917A00816080937A002C
:100C600080917A00806880937A001092C10061E0E0
:100C700086E00E94010261E087E00E94010261E0DB
:100C800089E00E94010210929E0210929D02109231
:100C90009C0210929B0210929A02109299028DE986
:100CA00091E09093A00280939F0290918F029631E1
:100CB00008F057C02DEB30E030939A022093990250
:100CC0002BE931E030939C0220939B022CE231E02F
:100CD00030939E0220939D0220916800983050F03E
:100CE00031E09E3008F430E081E001C0880F3A9591
:100CF000EAF701C084E0822B80936800983038F0D6
:100D00009E3040F0963148F020E030E008C02DE6FB
:100D100030E005C02BE630E002C02CE630E0309336
:100D2000970220939602983030F481E001C0880F3A
:100D30009A95EAF70EC0292F30E09E3018F428501B
:100D4000310902C02E50310981E001C0880F2A9577
:100D5000EAF78093980280919F029091A0020197F8
:100D6000F1F780919D0290919E02892B21F1809153
:100D700074019091750122E083389207E1F00097A9
:100D800011F00E9443038091A1028E7F8093A10203
:100D9000109273011092720183E892E090937501B2
:100DA00080937401E0919602F09197029081809176
:100DB0009802892B808362E082E00E94010262E057
:100DC00083E00E9401028DE890E0909301018093FE
:100DD0000001809169008C7F826080936900E89AAD
:100DE0008BE990E090930301809302018091690068
:100DF000837F886080936900E99A88EB9BE09093F9
:100E0000E4018093E301E091F601F091F70182E0C3
:100E10008083E091F201F091F3011082E091F401FE
:100E2000F091F5018FEC80831092FE01E091FA01C0
:100E3000F091FB0186E08083E091F801F091F901E7
:100E4000808180618083E091F801F091F9018081D7
:100E500088608083E091F801F091F90180818068D9
:100E60008083E091F801F091F90180818F7D80838A
:100E70008AE791E014E6180F8BE791E008E0080F8D
:100E800083E891E050E1F52EF80E8EE791E060E105
:100E9000E62EE80ECEE8D1E061E086E00E94B501E2
:100EA0008091E50181110EC08091E3019091E401F0
:100EB00001979093E4018093E301892B19F481E079
:100EC0008093E5018091E201882309F482C090912A
:100ED000E501992309F47DC0853221F5EEE7F1E0C3
:100EE0008191EE12FDCF8091760190917701A091D2
:100EF0007801B0917901EEE8F1E02C2F205F31917B
:100F0000880F991FAA1FBB1F832B2E13F8CF809326
:100F1000760190937701A0937801B09379010E94B4
:100F20005D0340C08A31C1F4EBE7F1E081910E131B
:100F3000FDCF8091760190917701A0917801B091D9
:100F40007901E3E8F1E02191880F991FAA1FBB1FE7
:100F5000822BFE12F8CFDBCF60E086E00E94B50165
:100F600061E087E00E94B50166E970E080E090E012
:100F70000E94620260E087E00E94B50166E970E0CD
:100F800080E090E00E94620261E087E00E94B5018B
:100F900066E970E080E090E00E94620260E087E035
:100FA0000E94B5011092E2011092DE011092DF0161
:100FB0001092E0011092E1011092760110927701F7
:100FC0001092780110927901EAE7F1E011921E1374
:100FD000FDCF0E94AB0160CF8AE191E09093840243
:100FE0008093830283E892E00C94430397FB072EDF
:100FF00016F4009407D077FD09D00E940A0807FC78
:1010000005D03EF4909581959F4F08957095619518
:101010007F4F0895AA1BBB1B51E107C0AA1FBB1F2E
:10102000A617B70710F0A61BB70B881F991F5A9574
:10103000A9F780959095BC01CD010895EE0FFF1F93
:101040000590F491E02D099481E090E0F8940C94DF
:10105000290810E0C2E6D0E004C0FE010E941E088C
:0C1060002196C336D107C9F7F894FFCFE2
:10106C009C029C02000000004201AF00DA008901E2
:10107C000B01E900FD0000000000B602AF005A03AE
:08108C00B5020A0322039D02D4
:00000001FF
