:100000000C9463000C94BE040C9497040C94E504C7
:100010000C94E5040C94E5040C948B000C948B0078
:100020000C948B000C948B000C948B000C948B0024
:100030000C948B000C948B000C948B000C948B0014
:100040000C944D040C948B000C941B040C94F5033D
:100050000C948B000C948B000C948B000C948B00F4
:100060000C948B000C948B000000000024002700EF
:100070002A0000000008000201000003040700003D
:1000800000000000000000000000250028002B00F8
:1000900000000000230026002900040404040404D6
:1000A0000404020202020202030303030303010227
:1000B00004081020408001020408102001020408F6
:1000C00010205F05810811241FBECFEFD8E0DEBFEE
:1000D000CDBF11E0A0E0B1E0E8ECF1E102C0059095
:1000E0000D92A832B107D9F722E0A8E2B1E001C031
:1000F0001D92AA3AB207E1F710E0C2E6D0E004C0D0
:100100002197FE010E94CC08C136D107C9F70E9491
:100110000A060C94D7080C9400008091EA018F5FC6
:100120008093EA011092ED0188EB9BE09093EC0143
:100130008093EB0108958091EA01E82FF0E0E25806
:10014000FE4F91E090838F5F8093EA011092ED0162
:1001500088EB9BE09093EC018093EB010895CF92A4
:10016000DF92EF92FF920F931F93CF93DF936C0177
:100170007A018B01C0E0D0E0CE15DF0589F0D8010F
:100180006D918D01D601ED91FC910190F081E02DF2
:10019000C6010995892B11F47E0102C02196ECCF8E
:1001A000C701DF91CF911F910F91FF90EF90DF90EA
:1001B000CF900895FC01538D448D252F30E0842F7E
:1001C00090E0821B930B541710F0CF96089501977F
:1001D0000895FC01918D828D981761F0828DDF0169
:1001E000A80FB11D5D968C91928D9F5F9F73928F2A
:1001F00090E008958FEF9FEF0895FC01918D828D1F
:10020000981731F0828DE80FF11D858D90E00895EB
:100210008FEF9FEF0895FC01918D228D892F90E043
:10022000805C9F4F821B91098F73992708958EEEF2
:1002300091E00E940B0121E0892B09F420E0822F3C
:100240000895FC01848DDF01A80FB11DA35ABF4F93
:100250002C91848D90E001968F739927848FA689C5
:10026000B7892C93A089B1898C9180648C93938DEC
:10027000848D981306C00288F389E02D80818F7DDC
:1002800080830895EF92FF920F931F93CF93DF9394
:10029000EC0181E0888F9B8D8C8D981305C0E889D7
:1002A000F989808185FD24C0F62E0B8D10E00F5F4B
:1002B0001F4F0F731127E02E8C8DE8120CC00FB664
:1002C00007FCFACFE889F989808185FFF5CFCE0157
:1002D0000E942101F1CF8B8DFE01E80FF11DE35A41
:1002E000FF4FF0820B8FEA89FB898081806207C013
:1002F000EE89FF896083E889F98980818064808341
:1003000081E090E0DF91CF911F910F91FF90EF90EE
:100310000895CF93DF93EC01888D8823C9F0EA8993
:10032000FB89808185FD05C0A889B9898C9186FDEE
:100330000FC00FB607FCF5CF808185FFF2CFA889EB
:10034000B9898C9185FFEDCFCE010E942101E7CFC5
:10035000DF91CF91089580E090E0892B29F00E94F1
:10036000170181110C940000089590E0FC01EE58F3
:10037000FF4F3491FC01E255FF4F2491FC01E656FA
:10038000FF4FE491EE2309F43BC0332339F13330BE
:1003900091F038F43130A9F0323001F584B58F7D19
:1003A00012C0373091F03830A1F03430B9F4809178
:1003B00080008F7D03C0809180008F7780938000C4
:1003C0000DC084B58F7784BD09C08091B0008F7750
:1003D00003C08091B0008F7D8093B000F0E0EE0FFD
:1003E000FF1FEA57FF4FA591B4918FB7F894EC9196
:1003F000611103C020952E2301C02E2B2C938FBF9B
:100400000895CF93DF9390E0FC01E255FF4F2491D4
:10041000FC01E656FF4F8491882361F190E0880F3C
:10042000991FFC01E859FF4FC591D491FC01EA578F
:10043000FF4FA591B491611109C09FB7F8948881CD
:10044000209582238883EC912E230BC0623061F4C7
:100450009FB7F8943881822F809583238883EC910D
:100460002E2B2C939FBF06C08FB7F894E8812E2BBC
:1004700028838FBFDF91CF9108953FB7F894809183
:100480006E0190916F01A0917001B091710126B53C
:10049000A89B05C02F3F19F00196A11DB11D3FBFBC
:1004A000BA2FA92F982F8827820F911DA11DB11D4A
:1004B000BC01CD0142E0660F771F881F991F4A9546
:1004C000D1F708958F929F92AF92BF92CF92DF9211
:1004D000EF92FF926B017C010E943D024B015C0197
:1004E000C114D104E104F104F1F00E943D02DC01E9
:1004F000CB0188199909AA09BB09883E9340A10537
:10050000B10570F321E0C21AD108E108F10888EEC4
:10051000880E83E0981EA11CB11CC114D104E10413
:10052000F10419F7DDCFFF90EF90DF90CF90BF90EF
:10053000AF909F908F90089508952091740130910D
:1005400075012817390771F4909172018091730138
:10055000981741F0E0917201F0E0E75DFE4F808175
:1005600090E008958FEF9FEF089508951F93CF9324
:10057000DF93DC015C962D913C915D97211531054F
:1005800039F481E090E013969C938E9312973DC0CE
:100590005196ED91FC91529750969C915097892FCE
:1005A00080951FB75E964C915E9741FB772770F957
:1005B00041FD6095F8944081772311F0492B01C0EB
:1005C00048234083E9012197F1F748E0508160FF1B
:1005D00002C0592B01C058235083E9012197F1F73C
:1005E0006695415099F7772321F090818923808384
:1005F00003C08081982B90831FBF5C968D919C9146
:100600005D970197F1F721E030E0C901DF91CF91CB
:100610001F910895209174013091750128173907B1
:1006200071F4809173012091720190E0805C9F4F82
:10063000821B910960E470E00E948B08089580E0BD
:1006400090E00895209174013091750128173907C1
:10065000B9F49091720180917301981789F0E0913B
:100660007201F0E0E75DFE4F80812091720130E081
:100670002F5F3F4F2F7333272093720190E008952F
:100680008FEF9FEF0895E0917401F0917501E817E5
:10069000F90769F4A389B4899C9185898095892398
:1006A0008C93109275011092740181E0089580E09E
:1006B0000895089580E090E00895FF920F931F93AE
:1006C000CF93DF9300D000D0CDB7DEB769837A83B4
:1006D0008B839C838E010F5F1F4F84E0F82EF00EFA
:1006E000F80161918F018EEE91E00E944201F012BB
:1006F000F7CF6AE070E080E090E00E9462020F9025
:100700000F900F900F90DF91CF911F910F91FF905D
:100710000895FF920F931F93CF93DF9300D000D0E3
:10072000CDB7DEB769837A838B839C8361E089E0F0
:100730000E94B5018E010F5F1F4F84E0F82EF00E6E
:10074000F80161918F018BE892E00E94B602F012ED
:10075000F7CF6AE070E080E090E00E94620260E023
:1007600089E00E94B5010F900F900F900F90DF91DC
:10077000CF911F910F91FF900895CF92DF92EF924A
:10078000FF92C0907601D0907701E0907801F090D0
:100790007901C701B6010E948903C701B6010E9411
:1007A0005D0360E086E00E94B50166E970E080E0EC
:1007B00090E00E94620261E086E00E94B50166E975
:1007C00070E080E090E00E94620260E086E00E94BB
:1007D000B50166E970E080E090E0FF90EF90DF9077
:1007E000CF900C9462020E94D2081F920F920FB613
:1007F0000F9211242F933F934F935F936F937F93A7
:100800008F939F93AF93BF93EF93FF938EEE91E0FF
:100810000E942101FF91EF91BF91AF919F918F9124
:100820007F916F915F914F913F912F910F900FBEEC
:100830000F901F9018951F920F920FB60F921124D0
:100840002F938F939F93EF93FF93E091FE01F0918D
:10085000FF018081E0910402F091050282FD12C047
:100860009081809107028F5F8F7320910802821719
:1008700051F0E0910702F0E0E251FE4F958F809336
:10088000070201C08081FF91EF919F918F912F917D
:100890000F900FBE0F901F9018951F920F920FB6DA
:1008A0000F9211242F933F938F939F93AF93BF93F6
:1008B00080916A0190916B01A0916C01B0916D01E2
:1008C0003091690123E0230F2D3720F40196A11DFB
:1008D000B11D05C026E8230F0296A11DB11D20936E
:1008E000690180936A0190936B01A0936C01B093AE
:1008F0006D0180916E0190916F01A0917001B09196
:1009000071010196A11DB11D80936E0190936F013D
:10091000A0937001B0937101BF91AF919F918F919E
:100920003F912F910F900FBE0F901F9018951F921F
:100930000F920FB60F9211242F933F934F935F9313
:100940006F937F938F939F93AF93BF93EF93FF9397
:10095000E0910201F09103010995FF91EF91BF91A0
:10096000AF919F918F917F916F915F914F913F9147
:100970002F910F900FBE0F901F9018951F920F92FE
:100980000FB60F9211242F933F934F935F936F9362
:100990007F938F939F93AF93BF93EF93FF93E091D8
:1009A0000001F09101010995FF91EF91BF91AF9185
:1009B0009F918F917F916F915F914F913F912F9177
:1009C0000F900FBE0F901F9018951F920F920FB6A9
:1009D0000F9211242F933F934F935F936F937F93C5
:1009E0008F939F93AF93BF93EF93FF93E091740125
:1009F000F0917501309709F451C0968DA685B785A1
:100A0000858591FF04C09C91892329F447C09C915E
:100A1000892309F043C0A389B4899C918589809575
:100A200089238C93868997890197F1F7608D718D61
:100A3000A685B785558538E020E0CB010197F1F711
:100A4000822F90E095958795282F4C91452309F0AA
:100A50002068315091F7868D81FD2095809173013A
:100A600090E001968F73992730917201381749F001
:100A7000A0917301B0E0A75DBE4F2C9380937301EA
:100A800003C0868D8160868F828D938D0197F1F7EB
:100A9000A389B4899C918589892B8C93FF91EF91CF
:100AA000BF91AF919F918F917F916F915F914F9186
:100AB0003F912F910F900FBE0F901F90189510929D
:100AC000F1011092F00188EE93E0A0E0B0E0809395
:100AD000F2019093F301A093F401B093F50128E0A3
:100AE00031E03093EF012093EE0125EC30E03093BC
:100AF000FB012093FA0124EC30E03093FD012093B8
:100B0000FC0120EC30E03093FF012093FE0121EC4A
:100B100030E0309301022093000222EC30E0309369
:100B200003022093020226EC30E03093050220936A
:100B30000402109207021092080210920902109209
:100B40000A0210928E0210928D0280938F0290936F
:100B50009002A0939102B09392028AE191E0909367
:100B60008C0280938B021092A2021092A10210922A
:100B7000A4021092A3021092A6021092A502109253
:100B8000A8021092A7026091A9026E7F6D7F609308
:100B9000A9026695617081E0682788E00E94B5012E
:100BA00061E088E00E940102E6EBF0E0E491E0936E
:100BB0009B02E2EAF0E0E491F0E0EE0FFF1FEA575B
:100BC000FF4F8591949190939D0280939C0260E0E9
:100BD0008AE00E9401028091A90281FD04C061E0C7
:100BE0008AE00E94B5018AE080939702E8EBF0E08A
:100BF000E491E0939802E4EAF0E0E491F0E0EE0F93
:100C0000FF1FE057FF4F8591949190939A02809334
:100C100099020895CF93DF93CDB7DEB760970FB6F3
:100C2000F894DEBF0FBECDBF789484B5826084BDDA
:100C300084B5816084BD85B5826085BD85B58160E0
:100C400085BD80916E00816080936E00109281005E
:100C50008091810082608093810080918100816019
:100C600080938100809180008160809380008091DA
:100C7000B10084608093B1008091B0008160809366
:100C8000B00080917A00846080937A0080917A002D
:100C9000826080937A0080917A00816080937A00EC
:100CA00080917A00806880937A001092C10061E0A0
:100CB00086E00E94010261E087E00E94010261E09B
:100CC00089E00E9401021092A6021092A5021092E1
:100CD000A4021092A3021092A2021092A1028DE926
:100CE00091E09093A8028093A70290919702963189
:100CF00008F057C02DEB30E03093A2022093A10200
:100D00002BE931E03093A4022093A3022CE231E0DE
:100D10003093A6022093A50220916800983050F0ED
:100D200031E09E3008F430E081E001C0880F3A9550
:100D3000EAF701C084E0822B80936800983038F095
:100D40009E3040F0963148F020E030E008C02DE6BB
:100D500030E005C02BE630E002C02CE630E03093F6
:100D60009F0220939E02983030F481E001C0880FEA
:100D70009A95EAF70EC0292F30E09E3018F42850DB
:100D8000310902C02E50310981E001C0880F2A9537
:100D9000EAF78093A0028091A7029091A8020197A0
:100DA000F1F78091A5029091A602892B21F1809103
:100DB00074019091750122E08B389207E1F0009761
:100DC00011F00E9443038091A9028E7F8093A902B3
:100DD00010927301109272018BE892E0909375016A
:100DE00080937401E0919E02F0919F029081809126
:100DF000A002892B808362E082E00E94010262E00F
:100E000083E00E9401028DE890E0909301018093BD
:100E10000001809169008C7F826080936900E89A6C
:100E20008BE990E090930301809302018091690027
:100E3000837F886080936900E99A88EB9BE09093B8
:100E4000EC018093EB01E091FE01F091FF0182E063
:100E50008083E091FA01F091FB011082E091FC01A6
:100E6000F091FD018FEC808310920602E091020266
:100E7000F091030286E08083E0910002F09101028C
:100E8000808180618083E0910002F0910102808185
:100E900088608083E0910002F09101028081806887
:100EA0008083E0910002F091010280818F7D808338
:100EB0008EE791E014E6180F8FE791E058E0F52EE9
:100EC000F80E87E891E060E1E62EE80E82E891E016
:100ED00070E1D72ED80E61E086E00E94B5018091C6
:100EE000ED0181110EC08091EB019091EC01019711
:100EF0009093EC018093EB01892B19F481E08093AE
:100F0000ED01E091EA01EE2309F4F8C08091ED01D2
:100F1000882309F4F3C08E2F90E0DC01A258BE4F65
:100F20005D01212C312C412C512C612C712C812CF8
:100F3000912CC12CF0E02E16E0F4D5018E915D01CC
:100F4000882399F021E030E040E050E060E070E07C
:100F500080E090E0022D0E949F08422A532A642AD2
:100F6000752A862A972AC82AF92BBFEF2B1A3B0A23
:100F7000E2CF4092E2015092E3016092E40170926C
:100F8000E5018092E6019092E701C092E801F093BA
:100F9000E901E53221F5E2E8F1E08191DE12FDCFD1
:100FA0008091760190917701A0917801B0917901BB
:100FB000E2E9F1E020E12E0F3191880F991FAA1F7D
:100FC000BB1F832B2E13F8CF80937601909377016C
:100FD000A0937801B09379010E94BD0378C0EA31F3
:100FE000C1F4EFE7F1E08191FE12FDCF809176012F
:100FF00090917701A0917801B0917901E7E8F1E053
:101000002191880F991FAA1FBB1F822BEE12F8CFC8
:10101000DBCF60E086E00E94B50161E087E00E94DE
:10102000B50166E970E080E090E00E94620260E055
:1010300087E00E94B50166E970E080E090E00E94E0
:10104000620261E087E00E94B50166E970E080E03D
:1010500090E00E94620260E087E00E94B50150903B
:10106000E2016090E3017090E4018090E5019090CE
:10107000E601A090E701B090E801C090E90159862F
:101080006A867B868C869D86AE86BF86C88A698581
:101090007A858B859C850E9489036D857E858F85E9
:1010A00098890E94890359826A827B828C829D8200
:1010B000AE82BF82C88669817A818B819C810E94C1
:1010C0005D036D817E818F8198850E945D03109202
:1010D000EA0110927A0110927B0110927C01109229
:1010E0007D01109276011092770110927801109292
:1010F0007901EEE7F1E011921E13FDCF0E94AB01E2
:10110000EACE8AE191E090938C0280938B028BE887
:1011100092E00C94430397FB072E16F4009407D03B
:1011200077FD09D00E94B80807FC05D03EF49095E1
:1011300081959F4F0895709561957F4F08950F9306
:10114000083090F0982F872F762F652F542F432F3C
:10115000322F22270850F4CF220F331F441F551F70
:10116000661F771F881F991F0A95B2F70F91089580
:10117000AA1BBB1B51E107C0AA1FBB1FA617B707BD
:1011800010F0A61BB70B881F991F5A95A9F78095D9
:101190009095BC01CD010895EE0FFF1F0590F491CD
:1011A000E02D099481E090E0F8940C94D70810E0C9
:1011B000C2E6D0E004C0FE010E94CC082196C336EE
:0811C000D107C9F7F894FFCF35
:1011C8009C029C02000000004201AF00DA00890185
:1011D8000B01E900FD0000000000B602AF005A0351
:0811E800B5020A0322039D0277
:00000001FF
