:100000000C9463000C94B2040C948B040C94D904EB
:100010000C94D9040C94D9040C948B000C948B0090
:100020000C948B000C948B000C948B000C948B0024
:100030000C948B000C948B000C948B000C948B0014
:100040000C9441040C948B000C940F040C94E90361
:100050000C948B000C948B000C948B000C948B00F4
:100060000C948B000C948B000000000024002700EF
:100070002A0000000008000201000003040700003D
:1000800000000000000000000000250028002B00F8
:1000900000000000230026002900040404040404D6
:1000A0000404020202020202030303030303010227
:1000B00004081020408001020408102001020408F6
:1000C000102053056C0811241FBECFEFD8E0DEBF0F
:1000D000CDBF11E0A0E0B1E0EEE4F7E102C0059091
:1000E0000D92AA33B107D9F722E0AAE3B1E001C02B
:1000F0001D92AC3BB207E1F710E0C2E6D0E004C0CD
:100100002197FE010E94B708C136D107C9F70E94A6
:10011000FE050C949A0B0C9400008091FC018F5FFB
:100120008093FC011092FF0188EB9BE09093FE010D
:100130008093FD0108958091FC01E82FF0E0E057E5
:10014000FE4F91E090838F5F8093FC011092FF013E
:1001500088EB9BE09093FE018093FD010895CF9280
:10016000DF92EF92FF920F931F93CF93DF936C0177
:100170007A018B01C0E0D0E0CE15DF0589F0D8010F
:100180006D918D01D601ED91FC910190F081E02DF2
:10019000C6010995892B11F47E0102C02196ECCF8E
:1001A000C701DF91CF911F910F91FF90EF90DF90EA
:1001B000CF900895FC01538D448D252F30E0842F7E
:1001C00090E0821B930B541710F0CF96089501977F
:1001D0000895FC01918D828D981761F0828DDF0169
:1001E000A80FB11D5D968C91928D9F5F9F73928F2A
:1001F00090E008958FEF9FEF0895FC01918D828D1F
:10020000981731F0828DE80FF11D858D90E00895EB
:100210008FEF9FEF0895FC01918D228D892F90E043
:10022000805C9F4F821B91098F739927089580E00E
:1002300092E00E940B0121E0892B09F420E0822F3B
:100240000895FC01848DDF01A80FB11DA35ABF4F93
:100250002C91848D90E001968F739927848FA689C5
:10026000B7892C93A089B1898C9180648C93938DEC
:10027000848D981306C00288F389E02D80818F7DDC
:1002800080830895EF92FF920F931F93CF93DF9394
:10029000EC0181E0888F9B8D8C8D981305C0E889D7
:1002A000F989808185FD24C0F62E0B8D10E00F5F4B
:1002B0001F4F0F731127E02E8C8DE8120CC00FB664
:1002C00007FCFACFE889F989808185FFF5CFCE0157
:1002D0000E942101F1CF8B8DFE01E80FF11DE35A41
:1002E000FF4FF0820B8FEA89FB898081806207C013
:1002F000EE89FF896083E889F98980818064808341
:1003000081E090E0DF91CF911F910F91FF90EF90EE
:100310000895CF93DF93EC01888D8823C9F0EA8993
:10032000FB89808185FD05C0A889B9898C9186FDEE
:100330000FC00FB607FCF5CF808185FFF2CFA889EB
:10034000B9898C9185FFEDCFCE010E942101E7CFC5
:10035000DF91CF91089580E090E0892B29F00E94F1
:10036000170181110C940000089590E0FC01EE58F3
:10037000FF4F3491FC01E255FF4F2491FC01E656FA
:10038000FF4FE491EE2309F43BC0332339F13330BE
:1003900091F038F43130A9F0323001F584B58F7D19
:1003A00012C0373091F03830A1F03430B9F4809178
:1003B00080008F7D03C0809180008F7780938000C4
:1003C0000DC084B58F7784BD09C08091B0008F7750
:1003D00003C08091B0008F7D8093B000F0E0EE0FFD
:1003E000FF1FEA57FF4FA591B4918FB7F894EC9196
:1003F000611103C020952E2301C02E2B2C938FBF9B
:100400000895CF93DF9390E0FC01E255FF4F2491D4
:10041000FC01E656FF4F8491882361F190E0880F3C
:10042000991FFC01E859FF4FC591D491FC01EA578F
:10043000FF4FA591B491611109C09FB7F8948881CD
:10044000209582238883EC912E230BC0623061F4C7
:100450009FB7F8943881822F809583238883EC910D
:100460002E2B2C939FBF06C08FB7F894E8812E2BBC
:1004700028838FBFDF91CF9108953FB7F894809183
:10048000800190918101A0918201B091830126B5F4
:10049000A89B05C02F3F19F00196A11DB11D3FBFBC
:1004A000BA2FA92F982F8827820F911DA11DB11D4A
:1004B000BC01CD0142E0660F771F881F991F4A9546
:1004C000D1F708958F929F92AF92BF92CF92DF9211
:1004D000EF92FF926B017C010E943D024B015C0197
:1004E000C114D104E104F104F1F00E943D02DC01E9
:1004F000CB0188199909AA09BB09883E9340A10537
:10050000B10570F321E0C21AD108E108F10888EEC4
:10051000880E83E0981EA11CB11CC114D104E10413
:10052000F10419F7DDCFFF90EF90DF90CF90BF90EF
:10053000AF909F908F9008950895209186013091FB
:1005400087012817390771F4909184018091850102
:10055000981741F0E0918401F0E0E55CFE4F808166
:1005600090E008958FEF9FEF089508951F93CF9324
:10057000DF93DC015C962D913C915D97211531054F
:1005800039F481E090E013969C938E9312973DC0CE
:100590005196ED91FC91529750969C915097892FCE
:1005A00080951FB75E964C915E9741FB772770F957
:1005B00041FD6095F8944081772311F0492B01C0EB
:1005C00048234083E9012197F1F748E0508160FF1B
:1005D00002C0592B01C058235083E9012197F1F73C
:1005E0006695415099F7772321F090818923808384
:1005F00003C08081982B90831FBF5C968D919C9146
:100600005D970197F1F721E030E0C901DF91CF91CB
:100610001F9108952091860130918701281739078D
:1006200071F4809185012091840190E0805C9F4F5E
:10063000821B910960E470E00E947608089580E0D2
:1006400090E008952091860130918701281739079D
:10065000B9F49091840180918501981789F0E09117
:100660008401F0E0E55CFE4F80812091840130E060
:100670002F5F3F4F2F7333272093840190E008951D
:100680008FEF9FEF0895E0918601F0918701E817C1
:10069000F90769F4A389B4899C9185898095892398
:1006A0008C93109287011092860181E0089580E07A
:1006B0000895089580E090E008950E94BD08DF92BB
:1006C000EF92FF920F931F93CF93DF93CDB7DEB7D7
:1006D0006B970FB6F894DEBF0FBECDBF9091F401BB
:1006E0002091F5019A8F2B8F83E7890F8195821BCB
:1006F0001F928F932F939F931F921F921F9283E7B6
:100700008F9388E291E09F938F93CE0102969F93FF
:100710008F930E94C2088AE389838DE08E878AE0E6
:100720008F878E010F5F1F4F0FB6F894DEBF0FBE8D
:10073000CDBF78018FE0D82ED00EF70161917F01F7
:1007400080E092E00E944201DE10F7CF61E089E094
:100750000E94B501F80161918F018DE992E00E943C
:10076000B602D012F7CF6AE070E080E090E00E941D
:10077000620260E089E00E94B50160E086E00E94CC
:10078000B50166E970E080E090E00E94620261E0FD
:1007900086E00E94B50166E970E080E090E00E948A
:1007A000620260E086E00E94B50166E970E080E0E8
:1007B00090E00E9462026B960FB6F894DEBF0FBE07
:1007C000CDBFDF91CF911F910F91FF90EF90DF9000
:1007D00008951F920F920FB60F9211242F933F93FB
:1007E0004F935F936F937F938F939F93AF93BF9339
:1007F000EF93FF9380E092E00E942101FF91EF913F
:10080000BF91AF919F918F917F916F915F914F9128
:100810003F912F910F900FBE0F901F9018951F9230
:100820000F920FB60F9211242F938F939F93EF93F4
:10083000FF93E0911002F09111028081E091160285
:10084000F091170282FD12C09081809119028F5F92
:100850008F7320911A02821751F0E0911902F0E093
:10086000E050FE4F958F8093190201C08081FF9167
:10087000EF919F918F912F910F900FBE0F901F902E
:1008800018951F920F920FB60F9211242F933F933A
:100890008F939F93AF93BF9380917C0190917D0143
:1008A000A0917E01B0917F0130917B0123E0230F65
:1008B0002D3720F40196A11DB11D05C026E8230F98
:1008C0000296A11DB11D20937B0180937C01909322
:1008D0007D01A0937E01B0937F0180918001909172
:1008E0008101A0918201B09183010196A11DB11DEA
:1008F0008093800190938101A0938201B093830142
:10090000BF91AF919F918F913F912F910F900FBE0B
:100910000F901F9018951F920F920FB60F921124EF
:100920002F933F934F935F936F937F938F939F93F7
:10093000AF93BF93EF93FF93E0910201F091030116
:100940000995FF91EF91BF91AF919F918F917F9109
:100950006F915F914F913F912F910F900FBE0F902C
:100960001F9018951F920F920FB60F9211242F937C
:100970003F934F935F936F937F938F939F93AF9327
:10098000BF93EF93FF93E0910001F091010109956E
:10099000FF91EF91BF91AF919F918F917F916F9157
:1009A0005F914F913F912F910F900FBE0F901F902D
:1009B00018951F920F920FB60F9211242F933F9309
:1009C0004F935F936F937F938F939F93AF93BF9357
:1009D000EF93FF93E0918601F0918701309709F43E
:1009E00051C0968DA685B785858591FF04C09C91E1
:1009F000892329F447C09C91892309F043C0A38926
:100A0000B4899C918589809589238C93868997895F
:100A10000197F1F7608D718DA685B785558538E012
:100A200020E0CB010197F1F7822F90E09595879513
:100A3000282F4C91452309F02068315091F7868D7D
:100A400081FD20958091850190E001968F73992713
:100A500030918401381749F0A0918501B0E0A55C80
:100A6000BE4F2C938093850103C0868D8160868F55
:100A7000828D938D0197F1F7A389B4899C91858923
:100A8000892B8C93FF91EF91BF91AF919F918F91A3
:100A90007F916F915F914F913F912F910F900FBE7A
:100AA0000F901F901895109203021092020288EE88
:100AB00093E0A0E0B0E08093040290930502A0933D
:100AC0000602B093070228E031E030930102209340
:100AD000000225EC30E030930D0220930C0224EC50
:100AE00030E030930F0220930E0220EC30E0309380
:100AF00011022093100221EC30E030931302209376
:100B0000120222EC30E0309315022093140226ECFE
:100B100030E03093170220931602109219021092BF
:100B20001A0210921B0210921C021092A002109244
:100B30009F028093A1029093A202A093A302B0937C
:100B4000A4028AE191E090939E0280939D0210920C
:100B5000B4021092B3021092B6021092B502109233
:100B6000B8021092B7021092BA021092B9026091C4
:100B7000BB026E7F6D7F6093BB026695617081E002
:100B8000682788E00E94B50161E088E00E940102C8
:100B9000E6EBF0E0E491E093AD02E2EAF0E0E4910C
:100BA000F0E0EE0FFF1FEA57FF4F8591949190936D
:100BB000AF028093AE0260E08AE00E940102809161
:100BC000BB0281FD04C061E08AE00E94B5018AE0B9
:100BD0008093A902E8EBF0E0E491E093AA02E4EA52
:100BE000F0E0E491F0E0EE0FFF1FE057FF4F85913A
:100BF00094919093AC028093AB020895789484B55D
:100C0000826084BD84B5816084BD85B5826085BD08
:100C100085B5816085BD80916E00816080936E0096
:100C20001092810080918100826080938100809188
:100C30008100816080938100809180008160809339
:100C400080008091B10084608093B1008091B000F9
:100C500081608093B00080917A00846080937A00F4
:100C600080917A00826080937A0080917A0081601E
:100C700080937A0080917A00806880937A00109245
:100C8000C10061E086E00E94010261E087E00E940D
:100C9000010261E089E00E9401021092B802109204
:100CA000B7021092B6021092B5021092B4021092DE
:100CB000B3028DE991E09093BA028093B9029091CA
:100CC000A902963108F057C02DEB30E03093B40202
:100CD0002093B3022BE931E03093B6022093B502A2
:100CE0002CE231E03093B8022093B70220916800E3
:100CF000983050F031E09E3008F430E081E001C0DF
:100D0000880F3A95EAF701C084E0822B809368004F
:100D1000983038F09E3040F0963148F020E030E0D6
:100D200008C02DE630E005C02BE630E002C02CE61E
:100D300030E03093B1022093B002983030F481E07B
:100D400001C0880F9A95EAF70EC0292F30E09E3037
:100D500018F42850310902C02E50310981E001C039
:100D6000880F2A95EAF78093B2028091B902909198
:100D7000BA020197F1F78091B7029091B802892BDE
:100D800021F1809186019091870122E08D399207AF
:100D9000E1F0009711F00E9443038091BB028E7F27
:100DA0008093BB0210928501109284018DE992E03C
:100DB0009093870180938601E091B002F091B10297
:100DC00090818091B202892B808362E082E00E9450
:100DD000010262E083E00E9401028DE890E09093BE
:100DE000010180930001809169008C7F8260809373
:100DF0006900E89A8BE990E09093030180930201E7
:100E000080916900837F886080936900E99A88EB0C
:100E10009BE09093FE018093FD01E0911002F09120
:100E2000110282E08083E0910C02F0910D021082A9
:100E3000E0910E02F0910F028FEC80831092180265
:100E4000E0911402F091150286E08083E091120295
:100E5000F0911302808180618083E0911202F09111
:100E60001302808188608083E0911202F091130266
:100E7000808180688083E0911202F091130280816A
:100E80008F7D8083C0E9D1E0EC2E34E6E30E4C2E5A
:100E900080E1480E80EA91E010E1312E380E81E9C0
:100EA00091E010E1180F8FE991E005E1F02EF80EC6
:100EB00061E086E00E94B5018091FF0181110EC0C2
:100EC0008091FD019091FE0101979093FE01809326
:100ED000FD01892B19F481E08093FF01E091FC0171
:100EE000EE2309F4F6C08091FF01882309F4F1C0D4
:100EF000E03209F449C0E53281F0EA3109F096C0E8
:100F00008091F8019091F901A091FA01B091FB0153
:100F1000E2E9F1E028E02E0F64C08091F8019091A1
:100F2000F901A091FA01B091FB01E1E9F1E0219111
:100F3000880F991FAA1FBB1F822B1E13F8CF809307
:100F4000F8019093F901A093FA01B093FB0180910D
:100F5000F4019091F501A091F601B091F701EFE94C
:100F6000F1E02191880F991FAA1FBB1F822BFE124F
:100F7000F8CF8093F4019093F501A093F601B0931C
:100F8000F7010E945F038EC08091F8019091F901F2
:100F9000A091FA01B091FB01E0E9F1E02191880F05
:100FA000991FAA1FBB1F822B4E12F8CF8093F80106
:100FB0009093F901A093FA01B093FB018091F401A1
:100FC0009091F501A091F601B091F701E0EAF1E00E
:100FD0002191880F991FAA1FBB1F822B3E12F8CFA9
:100FE000C8CF3191880F991FAA1FBB1F832B2E13C7
:100FF000F8CF8093F8019093F901A093FA01B09390
:10100000FB018091F4019091F501A091F601B0915E
:10101000F701E9E9F1E020E12E0F3191880F991FE6
:10102000AA1FBB1F832B2E13F8CFA3CF8E2F90E0C8
:10103000EC01C057DE4F6E01A0E0B0E0512C612CF6
:10104000712C812C912CA12CB12CF0E0AE17D0F496
:10105000E6018A916E01882399F021E030E040E0BA
:1010600050E060E070E080E090E00A2F0E948A0883
:10107000522A632A742A852A962AA72AB82AF92B83
:101080001196E4CF509288016092890170928A0192
:1010900080928B0190928C01A0928D01B0928E0172
:1010A000F0938F011092FC011092F8011092F90157
:1010B0001092FA011092FB011092F4011092F501C6
:1010C0001092F6011092F701E0E9F1E01192EE12B0
:1010D000FDCF0E94AB01ECCE8AE191E090939E029D
:1010E00080939D028DE992E00C94430397FB072EB9
:1010F00016F4009407D077FD09D00E94A30807FCDE
:1011000005D03EF4909581959F4F08957095619517
:101110007F4F08950F93083090F0982F872F762FE8
:10112000652F542F432F322F22270850F4CF220F40
:10113000331F441F551F661F771F881F991F0A956D
:10114000B2F70F910895AA1BBB1B51E107C0AA1F5C
:10115000BB1FA617B70710F0A61BB70B881F991F58
:101160005A95A9F780959095BC01CD010895EE0F91
:10117000FF1F0590F491E02D099481E090E0F89430
:101180000C949A0BAEE0B0E0E8ECF8E00C94710B34
:101190000D891E8986E08C831A8309838FEF9FE770
:1011A0009E838D83AE01475E5F4F6F89788DCE0140
:1011B00001960E94E5082F813885F801E20FF31FA0
:1011C00010822E96E4E00C948D0BACE0B0E0EBEED8
:1011D000F8E00C94630B7C016B018A01FC0117821F
:1011E0001682838181FFBDC1CE0101964C01F701BA
:1011F0009381F60193FD859193FF81916F0188237F
:1012000009F4ABC1853239F493FD859193FF819147
:101210006F01853229F4B70190E00E94CD0AE7CF33
:10122000512C312C20E02032A0F48B3269F030F4C4
:10123000803259F0833269F420612CC08D3239F04C
:10124000803339F4216026C02260246023C02860E6
:1012500021C027FD27C030ED380F3A3078F426FF43
:1012600006C0FAE05F9E300D1124532E13C08AE0B1
:10127000389E300D1124332E20620CC08E3221F4A2
:1012800026FD6BC1206406C08C3611F4206802C0B4
:10129000883641F4F60193FD859193FF81916F01AA
:1012A0008111C1CF982F9F7D9554933028F40C5F06
:1012B0001F4FFFE3F9830DC0833631F0833771F0A0
:1012C000833509F05BC022C0F801808189830E5FFD
:1012D0001F4F44244394512C540115C03801F2E0AF
:1012E0006F0E711CF801A080B18026FF03C0652D30
:1012F00070E002C06FEF7FEFC5012C870E94C20A29
:101300002C0183012C852F77222E17C03801F2E0A3
:101310006F0E711CF801A080B18026FF03C0652DFF
:1013200070E002C06FEF7FEFC5012C870E94B70A03
:101330002C012C852068222E830123FC1BC0832DC9
:1013400090E048165906B0F4B70180E290E00E94A0
:10135000CD0A3A94F4CFF50127FC859127FE8191BF
:101360005F01B70190E00E94CD0A31103A94F1E09C
:101370004F1A51084114510471F7E5C0843611F039
:10138000893639F5F80127FF07C0608171818281B4
:1013900093810C5F1F4F08C060817181072E000C84
:1013A000880B990B0E5F1F4F2F76722E97FF09C087
:1013B00090958095709561957F4F8F4F9F4F2068D6
:1013C000722E2AE030E0A4010E94050BA82EA81876
:1013D00044C0853729F42F7EB22E2AE030E025C0A4
:1013E000F22FF97FBF2E8F36C1F018F4883579F0CF
:1013F000B4C0803719F0883721F0AFC02F2F20619B
:10140000B22EB4FE0DC08B2D8460B82E09C024FF0F
:101410000AC09F2F9660B92E06C028E030E005C0B4
:1014200020E130E002C020E132E0F801B7FE07C061
:1014300060817181828193810C5F1F4F06C0608142
:10144000718180E090E00E5F1F4FA4010E94050BA8
:10145000A82EA818FB2DFF777F2E76FE0BC0372D08
:101460003E7FA51450F474FE0AC072FC08C0372DEC
:101470003E7E05C0BA2C372D03C0BA2C01C0B52C56
:1014800034FF0DC0FE01EA0DF11D8081803311F49F
:10149000397E09C032FF06C0B394B39404C0832FD1
:1014A000867809F0B39433FD13C030FF06C05A2C80
:1014B000B31418F4530C5B18B32CB31468F4B701CD
:1014C00080E290E03C870E94CD0AB3943C85F5CF42
:1014D000B31410F43B1801C0312C34FF12C0B70113
:1014E00080E390E03C870E94CD0A3C8532FF17C024
:1014F00031FD03C088E790E002C088E590E0B701C5
:101500000CC0832F867859F031FF02C08BE201C0F6
:1015100080E237FD8DE2B70190E00E94CD0AA5146C
:1015200038F4B70180E390E00E94CD0A5A94F7CFD7
:10153000AA94F401EA0DF11D8081B70190E00E94A8
:10154000CD0AA110F5CF332009F451CEB70180E2C6
:1015500090E00E94CD0A3A94F6CFF70186819781F8
:1015600002C08FEF9FEF2C96E2E10C947F0BFC0101
:101570000590615070400110D8F7809590958E0FBE
:101580009F1F0895FC016150704001900110D8F731
:10159000809590958E0F9F1F08950F931F93CF9363
:1015A000DF93FB01238121FD03C08FEF9FEF28C054
:1015B00022FF16C046815781248135814217530787
:1015C00044F4A081B1819D012F5F3F4F318320837F
:1015D0008C93268137812F5F3F4F3783268310C03E
:1015E000EB01092F182F0084F185E02D0995892B37
:1015F000E1F68E819F8101969F838E83812F902FAC
:10160000DF91CF911F910F910895FA01AA272830F9
:1016100051F1203181F1E8946F936E7F6E5F7F4FBF
:101620008F4F9F4FAF4FB1E03ED0B4E03CD0670F3B
:10163000781F891F9A1FA11D680F791F8A1F911D8E
:10164000A11D6A0F711D811D911DA11D20D009F4DE
:1016500068943F912AE0269F11243019305D319320
:10166000DEF6CF010895462F4770405D4193B3E009
:101670000FD0C9F7F6CF462F4F70405D4A3318F0B0
:10168000495D31FD4052419302D0A9F7EACFB4E061
:10169000A6959795879577956795BA95C9F7009719
:1016A0006105710508959B01AC010A2E06945795BA
:1016B000479537952795BA95C9F7620F731F841F11
:1016C000951FA01D08952F923F924F925F926F92A7
:1016D0007F928F929F92AF92BF92CF92DF92EF92C2
:1016E000FF920F931F93CF93DF93CDB7DEB7CA1B43
:1016F000DB0B0FB6F894DEBF0FBECDBF09942A886E
:10170000398848885F846E847D848C849B84AA8415
:10171000B984C884DF80EE80FD800C811B81AA81A2
:10172000B981CE0FD11D0FB6F894DEBF0FBECDBF6D
:10173000ED01089510E0C2E6D0E004C0FE010E9471
:0E174000B7082196C336D107C9F7F894FFCF3A
:10174E009C029C02000000004201AF00DA008901F9
:10175E000B01E900FD0000000000B602AF005A03C5
:10176E00B5020A0322039D02253032582530345823
:0A177E0025303458253032580000A1
:00000001FF
